{
  "contractName": "StudentRecord",
  "abi": [
    {
      "inputs": [
        {
          "internalType": "string",
          "name": "name",
          "type": "string"
        },
        {
          "internalType": "uint256",
          "name": "age",
          "type": "uint256"
        },
        {
          "internalType": "string",
          "name": "major",
          "type": "string"
        }
      ],
      "name": "addStudent",
      "outputs": [],
      "stateMutability": "nonpayable",
      "type": "function"
    },
    {
      "inputs": [
        {
          "internalType": "uint256",
          "name": "id",
          "type": "uint256"
        }
      ],
      "name": "getStudent",
      "outputs": [
        {
          "internalType": "string",
          "name": "",
          "type": "string"
        },
        {
          "internalType": "uint256",
          "name": "",
          "type": "uint256"
        },
        {
          "internalType": "string",
          "name": "",
          "type": "string"
        }
      ],
      "stateMutability": "view",
      "type": "function"
    },
    {
      "inputs": [
        {
          "internalType": "uint256",
          "name": "id",
          "type": "uint256"
        }
      ],
      "name": "deleteStudent",
      "outputs": [],
      "stateMutability": "nonpayable",
      "type": "function"
    },
    {
      "inputs": [],
      "name": "getId",
      "outputs": [
        {
          "internalType": "uint256",
          "name": "",
          "type": "uint256"
        }
      ],
      "stateMutability": "view",
      "type": "function"
    }
  ],
  "bytecode": "0x608060405260018055600060025534801561001957600080fd5b50610b94806100296000396000f3fe608060405234801561001057600080fd5b506004361061004c5760003560e01c80635d1ca63114610051578063642f91631461006f578063b645307d146100a1578063ed32a8a1146100bd575b600080fd5b6100596100d9565b6040516100669190610457565b60405180910390f35b610089600480360381019061008491906104b2565b6100e3565b6040516100989392919061056f565b60405180910390f35b6100bb60048036038101906100b691906104b2565b610282565b005b6100d760048036038101906100d291906106e9565b610332565b005b6000600254905090565b6060600060606000841180156100fa575060015484105b610139576040517f08c379a0000000000000000000000000000000000000000000000000000000008152600401610130906107c0565b60405180910390fd5b60008060008681526020019081526020016000209050806001018160020154826003018280546101689061080f565b80601f01602080910402602001604051908101604052809291908181526020018280546101949061080f565b80156101e15780601f106101b6576101008083540402835291602001916101e1565b820191906000526020600020905b8154815290600101906020018083116101c457829003601f168201915b505050505092508080546101f49061080f565b80601f01602080910402602001604051908101604052809291908181526020018280546102209061080f565b801561026d5780601f106102425761010080835404028352916020019161026d565b820191906000526020600020905b81548152906001019060200180831161025057829003601f168201915b50505050509050935093509350509193909250565b600081118015610293575060015481105b6102d2576040517f08c379a00000000000000000000000000000000000000000000000000000000081526004016102c9906107c0565b60405180910390fd5b6000808281526020019081526020016000206000808201600090556001820160006102fd91906103e1565b600282016000905560038201600061031591906103e1565b50506002600081548092919061032a9061086f565b919050555050565b604051806080016040528060015481526020018481526020018381526020018281525060008060015481526020019081526020016000206000820151816000015560208201518160010190816103889190610a44565b506040820151816002015560608201518160030190816103a89190610a44565b50905050600160008154809291906103bf90610b16565b9190505550600260008154809291906103d790610b16565b9190505550505050565b5080546103ed9061080f565b6000825580601f106103ff575061041e565b601f01602090049060005260206000209081019061041d9190610421565b5b50565b5b8082111561043a576000816000905550600101610422565b5090565b6000819050919050565b6104518161043e565b82525050565b600060208201905061046c6000830184610448565b92915050565b6000604051905090565b600080fd5b600080fd5b61048f8161043e565b811461049a57600080fd5b50565b6000813590506104ac81610486565b92915050565b6000602082840312156104c8576104c761047c565b5b60006104d68482850161049d565b91505092915050565b600081519050919050565b600082825260208201905092915050565b60005b838110156105195780820151818401526020810190506104fe565b60008484015250505050565b6000601f19601f8301169050919050565b6000610541826104df565b61054b81856104ea565b935061055b8185602086016104fb565b61056481610525565b840191505092915050565b600060608201905081810360008301526105898186610536565b90506105986020830185610448565b81810360408301526105aa8184610536565b9050949350505050565b600080fd5b600080fd5b7f4e487b7100000000000000000000000000000000000000000000000000000000600052604160045260246000fd5b6105f682610525565b810181811067ffffffffffffffff82111715610615576106146105be565b5b80604052505050565b6000610628610472565b905061063482826105ed565b919050565b600067ffffffffffffffff821115610654576106536105be565b5b61065d82610525565b9050602081019050919050565b82818337600083830152505050565b600061068c61068784610639565b61061e565b9050828152602081018484840111156106a8576106a76105b9565b5b6106b384828561066a565b509392505050565b600082601f8301126106d0576106cf6105b4565b5b81356106e0848260208601610679565b91505092915050565b6000806000606084860312156107025761070161047c565b5b600084013567ffffffffffffffff8111156107205761071f610481565b5b61072c868287016106bb565b935050602061073d8682870161049d565b925050604084013567ffffffffffffffff81111561075e5761075d610481565b5b61076a868287016106bb565b9150509250925092565b7f496e76616c69642053747564656e742049440000000000000000000000000000600082015250565b60006107aa6012836104ea565b91506107b582610774565b602082019050919050565b600060208201905081810360008301526107d98161079d565b9050919050565b7f4e487b7100000000000000000000000000000000000000000000000000000000600052602260045260246000fd5b6000600282049050600182168061082757607f821691505b60208210810361083a576108396107e0565b5b50919050565b7f4e487b7100000000000000000000000000000000000000000000000000000000600052601160045260246000fd5b600061087a8261043e565b91506000820361088d5761088c610840565b5b600182039050919050565b60008190508160005260206000209050919050565b60006020601f8301049050919050565b600082821b905092915050565b6000600883026108fa7fffffffffffffffffffffffffffffffffffffffffffffffffffffffffffffffff826108bd565b61090486836108bd565b95508019841693508086168417925050509392505050565b6000819050919050565b600061094161093c6109378461043e565b61091c565b61043e565b9050919050565b6000819050919050565b61095b83610926565b61096f61096782610948565b8484546108ca565b825550505050565b600090565b610984610977565b61098f818484610952565b505050565b5b818110156109b3576109a860008261097c565b600181019050610995565b5050565b601f8211156109f8576109c981610898565b6109d2846108ad565b810160208510156109e1578190505b6109f56109ed856108ad565b830182610994565b50505b505050565b600082821c905092915050565b6000610a1b600019846008026109fd565b1980831691505092915050565b6000610a348383610a0a565b9150826002028217905092915050565b610a4d826104df565b67ffffffffffffffff811115610a6657610a656105be565b5b610a70825461080f565b610a7b8282856109b7565b600060209050601f831160018114610aae5760008415610a9c578287015190505b610aa68582610a28565b865550610b0e565b601f198416610abc86610898565b60005b82811015610ae457848901518255600182019150602085019450602081019050610abf565b86831015610b015784890151610afd601f891682610a0a565b8355505b6001600288020188555050505b505050505050565b6000610b218261043e565b91507fffffffffffffffffffffffffffffffffffffffffffffffffffffffffffffffff8203610b5357610b52610840565b5b60018201905091905056fea26469706673582212202a88685812f7355f421a153f7792f7d2dd51ed82af62c7e85cba2989add773ee64736f6c63430008130033",
  "immutableReferences": {},
  "source": "// SPDX-License-Identifier: MIT\r\npragma solidity ^0.8.0;\r\n\r\ncontract StudentRecord {\r\n    struct Student {\r\n    uint256 id;\r\n    string name;\r\n    uint256 age;\r\n    string major;\r\n    }\r\n\r\n    mapping (uint256 => Student) private students;\r\n    uint256 nextId = 1;\r\n    uint256 count = 0;\r\n\r\n    function addStudent(string memory name, uint256 age, string memory major) public {\r\n        students[nextId] = Student(nextId,name,age,major);\r\n        nextId++;\r\n        count++;\r\n    }\r\n\r\n    function getStudent(uint256 id) public view returns (string memory ,uint256, string memory) {\r\n        require(id > 0 && id < nextId,\"Invalid Student ID\");\r\n        Student storage student = students[id];\r\n        return (student.name, student.age, student.major);\r\n    \r\n    }\r\n\r\n    function deleteStudent(uint256 id) public {\r\n        require(id > 0 && id < nextId,\"Invalid Student ID\");\r\n        delete students[id];\r\n        count--;\r\n\r\n    }\r\n\r\n    function getId() public view returns (uint256) {\r\n        return count;\r\n    }\r\n}",
  "sourcePath": "E:\\Truffle Solidity\\contracts\\StudentRecord.sol",
  "compiler": {
    "name": "solc",
    "version": "0.8.19+commit.7dd6d404.Emscripten.clang"
  },
  "schemaVersion": "3.4.13",
  "updatedAt": "2023-03-12T01:17:06.978Z",
  "devdoc": {
    "kind": "dev",
    "methods": {},
    "version": 1
  },
  "userdoc": {
    "kind": "user",
    "methods": {},
    "version": 1
  }
}